{
  "_format": "hh-sol-artifact-1",
  "contractName": "ContentLedgerAnchor",
  "sourceName": "contracts/ContentLedgerAnchor.sol",
  "abi": [
    {
      "inputs": [],
      "stateMutability": "nonpayable",
      "type": "constructor"
    },
    {
      "anonymous": false,
      "inputs": [
        {
          "indexed": true,
          "internalType": "bytes32",
          "name": "merkleRoot",
          "type": "bytes32"
        },
        {
          "indexed": true,
          "internalType": "uint256",
          "name": "blockTimestamp",
          "type": "uint256"
        },
        {
          "indexed": true,
          "internalType": "uint256",
          "name": "blockNumber",
          "type": "uint256"
        }
      ],
      "name": "AnchorSubmitted",
      "type": "event"
    },
    {
      "anonymous": false,
      "inputs": [
        {
          "indexed": true,
          "internalType": "bytes32",
          "name": "contentHash",
          "type": "bytes32"
        },
        {
          "indexed": false,
          "internalType": "bool",
          "name": "exists",
          "type": "bool"
        }
      ],
      "name": "ContentVerified",
      "type": "event"
    },
    {
      "inputs": [],
      "name": "admin",
      "outputs": [
        {
          "internalType": "address",
          "name": "",
          "type": "address"
        }
      ],
      "stateMutability": "view",
      "type": "function"
    },
    {
      "inputs": [
        {
          "internalType": "bytes32",
          "name": "merkleRoot",
          "type": "bytes32"
        }
      ],
      "name": "anchor",
      "outputs": [
        {
          "internalType": "uint256",
          "name": "",
          "type": "uint256"
        }
      ],
      "stateMutability": "nonpayable",
      "type": "function"
    },
    {
      "inputs": [
        {
          "internalType": "bytes32",
          "name": "",
          "type": "bytes32"
        }
      ],
      "name": "anchorBlocks",
      "outputs": [
        {
          "internalType": "uint256",
          "name": "",
          "type": "uint256"
        }
      ],
      "stateMutability": "view",
      "type": "function"
    },
    {
      "inputs": [
        {
          "internalType": "uint256",
          "name": "",
          "type": "uint256"
        }
      ],
      "name": "anchorHistory",
      "outputs": [
        {
          "internalType": "bytes32",
          "name": "",
          "type": "bytes32"
        }
      ],
      "stateMutability": "view",
      "type": "function"
    },
    {
      "inputs": [
        {
          "internalType": "bytes32",
          "name": "",
          "type": "bytes32"
        }
      ],
      "name": "anchorTimestamps",
      "outputs": [
        {
          "internalType": "uint256",
          "name": "",
          "type": "uint256"
        }
      ],
      "stateMutability": "view",
      "type": "function"
    },
    {
      "inputs": [],
      "name": "getAnchorCount",
      "outputs": [
        {
          "internalType": "uint256",
          "name": "",
          "type": "uint256"
        }
      ],
      "stateMutability": "view",
      "type": "function"
    },
    {
      "inputs": [
        {
          "internalType": "bytes32",
          "name": "merkleRoot",
          "type": "bytes32"
        }
      ],
      "name": "getBlockNumber",
      "outputs": [
        {
          "internalType": "uint256",
          "name": "",
          "type": "uint256"
        }
      ],
      "stateMutability": "view",
      "type": "function"
    },
    {
      "inputs": [
        {
          "internalType": "bytes32",
          "name": "merkleRoot",
          "type": "bytes32"
        }
      ],
      "name": "getTimestamp",
      "outputs": [
        {
          "internalType": "uint256",
          "name": "",
          "type": "uint256"
        }
      ],
      "stateMutability": "view",
      "type": "function"
    },
    {
      "inputs": [
        {
          "internalType": "bytes32",
          "name": "merkleRoot",
          "type": "bytes32"
        }
      ],
      "name": "isAnchored",
      "outputs": [
        {
          "internalType": "bool",
          "name": "",
          "type": "bool"
        }
      ],
      "stateMutability": "view",
      "type": "function"
    },
    {
      "inputs": [],
      "name": "totalAnchors",
      "outputs": [
        {
          "internalType": "uint256",
          "name": "",
          "type": "uint256"
        }
      ],
      "stateMutability": "view",
      "type": "function"
    },
    {
      "inputs": [
        {
          "internalType": "address",
          "name": "newAdmin",
          "type": "address"
        }
      ],
      "name": "transferAdmin",
      "outputs": [],
      "stateMutability": "nonpayable",
      "type": "function"
    },
    {
      "inputs": [
        {
          "internalType": "bytes32",
          "name": "contentHash",
          "type": "bytes32"
        }
      ],
      "name": "verify",
      "outputs": [
        {
          "internalType": "bool",
          "name": "",
          "type": "bool"
        }
      ],
      "stateMutability": "view",
      "type": "function"
    }
  ],
  "bytecode": "0x608060405234801561001057600080fd5b5033600360006101000a81548173ffffffffffffffffffffffffffffffffffffffff021916908373ffffffffffffffffffffffffffffffffffffffff1602179055506000600481905550610c6b806100696000396000f3fe608060405234801561001057600080fd5b50600436106100b45760003560e01c8063cb95f57211610071578063cb95f572146101b3578063d3182bed146101e3578063d45c443514610201578063eecdf92714610231578063f341e4f614610261578063f851a44014610291576100b4565b806323981e0b146100b957806347378145146100e95780634f0b58011461011957806375829def1461014957806375e36616146101655780639ffb463514610195575b600080fd5b6100d360048036038101906100ce919061079c565b6102af565b6040516100e091906107e2565b60405180910390f35b61010360048036038101906100fe919061079c565b6102c7565b60405161011091906107e2565b60405180910390f35b610133600480360381019061012e919061079c565b610339565b6040516101409190610818565b60405180910390f35b610163600480360381019061015e9190610891565b610358565b005b61017f600480360381019061017a919061079c565b61049b565b60405161018c9190610818565b60405180910390f35b61019d6104ac565b6040516101aa91906107e2565b60405180910390f35b6101cd60048036038101906101c8919061079c565b6104b2565b6040516101da91906107e2565b60405180910390f35b6101eb6104ca565b6040516101f891906107e2565b60405180910390f35b61021b6004803603810190610216919061079c565b6104d4565b60405161022891906107e2565b60405180910390f35b61024b6004803603810190610246919061079c565b610544565b60405161025891906107e2565b60405180910390f35b61027b600480360381019061027691906108ea565b610717565b6040516102889190610926565b60405180910390f35b61029961073b565b6040516102a69190610950565b60405180910390f35b60016020528060005260406000206000915090505481565b60008060016000848152602001908152602001600020540361031e576040517f08c379a0000000000000000000000000000000000000000000000000000000008152600401610315906109c8565b60405180910390fd5b60016000838152602001908152602001600020549050919050565b6000806000808481526020019081526020016000205414159050919050565b600360009054906101000a900473ffffffffffffffffffffffffffffffffffffffff1673ffffffffffffffffffffffffffffffffffffffff163373ffffffffffffffffffffffffffffffffffffffff16146103e8576040517f08c379a00000000000000000000000000000000000000000000000000000000081526004016103df90610a5a565b60405180910390fd5b600073ffffffffffffffffffffffffffffffffffffffff168173ffffffffffffffffffffffffffffffffffffffff1603610457576040517f08c379a000000000000000000000000000000000000000000000000000000000815260040161044e90610ac6565b60405180910390fd5b80600360006101000a81548173ffffffffffffffffffffffffffffffffffffffff021916908373ffffffffffffffffffffffffffffffffffffffff16021790555050565b600080600280549050119050919050565b60045481565b60006020528060005260406000206000915090505481565b6000600454905090565b600080600080848152602001908152602001600020540361052a576040517f08c379a0000000000000000000000000000000000000000000000000000000008152600401610521906109c8565b60405180910390fd5b600080838152602001908152602001600020549050919050565b6000600360009054906101000a900473ffffffffffffffffffffffffffffffffffffffff1673ffffffffffffffffffffffffffffffffffffffff163373ffffffffffffffffffffffffffffffffffffffff16146105d6576040517f08c379a00000000000000000000000000000000000000000000000000000000081526004016105cd90610a5a565b60405180910390fd5b6000801b820361061b576040517f08c379a000000000000000000000000000000000000000000000000000000000815260040161061290610b32565b60405180910390fd5b60008060008481526020019081526020016000205414610670576040517f08c379a000000000000000000000000000000000000000000000000000000000815260040161066790610b9e565b60405180910390fd5b42600080848152602001908152602001600020819055504360016000848152602001908152602001600020819055506002829080600181540180825580915050600190039060005260206000200160009091909190915055600460008154809291906106db90610bed565b91905055504342837f9d1f55737ae5b8dc5abd44a1dbe513242c93c918125622adc2968801fa181ab360405160405180910390a4429050919050565b6002818154811061072757600080fd5b906000526020600020016000915090505481565b600360009054906101000a900473ffffffffffffffffffffffffffffffffffffffff1681565b600080fd5b6000819050919050565b61077981610766565b811461078457600080fd5b50565b60008135905061079681610770565b92915050565b6000602082840312156107b2576107b1610761565b5b60006107c084828501610787565b91505092915050565b6000819050919050565b6107dc816107c9565b82525050565b60006020820190506107f760008301846107d3565b92915050565b60008115159050919050565b610812816107fd565b82525050565b600060208201905061082d6000830184610809565b92915050565b600073ffffffffffffffffffffffffffffffffffffffff82169050919050565b600061085e82610833565b9050919050565b61086e81610853565b811461087957600080fd5b50565b60008135905061088b81610865565b92915050565b6000602082840312156108a7576108a6610761565b5b60006108b58482850161087c565b91505092915050565b6108c7816107c9565b81146108d257600080fd5b50565b6000813590506108e4816108be565b92915050565b600060208284031215610900576108ff610761565b5b600061090e848285016108d5565b91505092915050565b61092081610766565b82525050565b600060208201905061093b6000830184610917565b92915050565b61094a81610853565b82525050565b60006020820190506109656000830184610941565b92915050565b600082825260208201905092915050565b7f4d65726b6c6520726f6f74206e6f7420666f756e640000000000000000000000600082015250565b60006109b260158361096b565b91506109bd8261097c565b602082019050919050565b600060208201905081810360008301526109e1816109a5565b9050919050565b7f4f6e6c792061646d696e2063616e2063616c6c20746869732066756e6374696f60008201527f6e00000000000000000000000000000000000000000000000000000000000000602082015250565b6000610a4460218361096b565b9150610a4f826109e8565b604082019050919050565b60006020820190508181036000830152610a7381610a37565b9050919050565b7f496e76616c696420616464726573730000000000000000000000000000000000600082015250565b6000610ab0600f8361096b565b9150610abb82610a7a565b602082019050919050565b60006020820190508181036000830152610adf81610aa3565b9050919050565b7f496e76616c6964206d65726b6c6520726f6f7400000000000000000000000000600082015250565b6000610b1c60138361096b565b9150610b2782610ae6565b602082019050919050565b60006020820190508181036000830152610b4b81610b0f565b9050919050565b7f526f6f7420616c726561647920616e63686f7265640000000000000000000000600082015250565b6000610b8860158361096b565b9150610b9382610b52565b602082019050919050565b60006020820190508181036000830152610bb781610b7b565b9050919050565b7f4e487b7100000000000000000000000000000000000000000000000000000000600052601160045260246000fd5b6000610bf8826107c9565b91507fffffffffffffffffffffffffffffffffffffffffffffffffffffffffffffffff8203610c2a57610c29610bbe565b5b60018201905091905056fea2646970667358221220348907330bc7938f59ad15096241285d3c982c6e88f03bd270743280c6733cd264736f6c63430008140033",
  "linkReferences": {},
  "deployedLinkReferences": {}
}